:020000040800F2
:10000000A0210020450100084D0100084F01000813
:1000100051010008530100085501000800000000CC
:100020000000000000000000000000005701000870
:1000300059010008000000005B010008D50B000812
:100040005F0100085F0100085F0100085F01000810
:100050005F0100085F0100085F0100085F01000800
:100060005F0100085F0100085F0100085F010008F0
:100070005F0100085F0100085F0100085F010008E0
:100080005F0100085F0100085F0100085F010008D0
:100090005F0100085F0100085F0100085F010008C0
:1000A0005F0100085F0100085F0100085F010008B0
:1000B0005F0100085F0100085F0100085F010008A0
:1000C0005F0100085F0100085F0100085F01000890
:1000D0005F010008310D0008410D0008510D0008B6
:1000E0005F0100085F010008330F00085F0100088E
:1000F0005F0100085F0100085F0100085F01000860
:100100005F0100085F0100085F0100085F0100084F
:10011000110D0008210D00085F0100085F010008B3
:100120005F0100085F0100085F0100085F0100082F
:10013000DFF80CD000F022F900480047611B0008EE
:10014000A02100200648804705480047FEE7FEE75B
:10015000FEE7FEE7FEE7FEE7FEE7FEE7FEE7FEE777
:10016000310100082DE9FE4F81EA030404F0004448
:1001700021F0004100944FF0000B23F0004350EABF
:1001800001045ED052EA03045BD0C3F30A54C1F306
:100190000A552C44A4F2F3340194A0FB0254C1F399
:1001A000130141F48011C3F3130343F4801301FBE3
:1001B000024400FB034E840A970A44EA815447EA4A
:1001C0008357A4FB076802958D0A05FB07854FEA54
:1001D000932C04FB0C542705029D4FEA065847EA6E
:1001E0001637B5EB08056EEB070C870E920E47EA43
:1001F000811742EA8312A7FB0201B6EB0B0164EB05
:1002000000042B0D43EA0C335E1844EB1C50DA4615
:100210005146E7FB0201C5F313044FEA0B3343EAEF
:1002200014534FEA0432019C43EA0603A4F10C0480
:100230000294009CCDE900B400F051F803B0BDE891
:10024000F08F00200146F9E70EB540F233410291EC
:100250000021CDE900110A460B4600F040F803B03A
:1002600000BD70B5C1F30A5201F000450024C1F38E
:10027000130140F2FF3341F480119A4201DA002069
:1002800070BD40F233439A42A2F2334203DC524241
:1002900000F006F800E090402C43F1D0404270BDE1
:1002A000202A04DB203A21FA02F00021704721FACB
:1002B00002F3D040C2F12002914008431946704732
:1002C00010B5141E73F1000408DA401C41F100015E
:1002D00092185B411A4301D120F0010010BD2DE9B5
:1002E000F04D92469B4611B1B1FA81F202E0B0FAAC
:1002F00080F22032904600F053F804460F4640EA60
:100300000A0041EA0B0153465A46084313D01146EE
:1003100053EA010019D0C8F140025046FFF7C0FF70
:1003200005460E4650465946424600F039F8084305
:1003300005D0012004E020463946BDE8F08D0020BC
:10034000054346EAE0762C4337430A986305E40AFE
:10035000A0EB08000022FD0A44EA47540A3002D507
:1003600000200146E9E7010510196941DDE908456A
:1003700000196941BDE8F04DA2E70000064C074DA9
:1003800006E0E06840F0010394E807009847103465
:10039000AC42F6D3FFF7D0FEC0200008E0200008F2
:1003A000202A04DB203A00FA02F100207047914035
:1003B000C2F1200320FA03F319439040704730B58F
:1003C00002460B4600210024002000BF0FE0555CD0
:1003D0006840002408E000F001051DB18C2585EA85
:1003E000600000E04010641C082CF4D3491C9942C2
:1003F000EDD330BD0149086070470000140401408E
:100400000149C860704700000020024030B5044632
:1004100004254FF4302000F093F80546042D17D141
:100420000C48006940F002000A490861084644612E
:10043000006940F0400008614FF4302000F080F87F
:1004400005460448006941F6FD710840014908610C
:10045000284630BD0020024004200B49C96801F045
:10046000010109B101200EE00749C96801F004014A
:1004700009B1022007E00449C96801F0100109B17F
:10048000032000E004207047002002400348006978
:1004900040F08000014908617047000000200240E0
:1004A0000549096821F01001034A116011460968E5
:1004B00001431160704700000020024078B50646F5
:1004C0000C46042500200090E80200F039F80546AB
:1004D000042D24D11348006940F00100114908613E
:1004E0003480E80200F02CF80546042D10D1B01C31
:1004F0000090200C00990880E80200F021F80546E1
:100500000848006941F6FE7108400649086106E0A6
:100510000448006941F6FE71084002490861284616
:1005200078BD0000002002400248034948600348AB
:10053000486070472301674500200240AB89EFCD3A
:1005400000B502460423FFF787FF034603E0FFF7E9
:1005500083FF0346521E012B01D1002AF7D102B9B5
:100560000523184600BD000010B504462948844202
:1005700008D10121042000F023FA0021042000F01A
:100580001FFA46E02448844208D10121082000F0E7
:1005900017FA0021082000F013FA3AE01F488442BD
:1005A00008D10121102000F00BFA0021102000F0EA
:1005B00007FA2EE01A48844208D10121202000F0D9
:1005C000FFF90021202000F0FBF922E015488442C9
:1005D00008D10121402000F0F3F90021402000F073
:1005E000EFF916E01048844208D10121802000F084
:1005F000E7F90021802000F0E3F90AE00B4884428B
:1006000007D10121801500F0DBF90021A01500F0D1
:10061000D7F910BD00080140000C01400010014056
:100620000014014000180140001C0140002001405E
:100630002DE9F04102460025002600200023002479
:10064000002791F803C00CF00F0591F803C00CF0DF
:10065000100CBCF1000F03D091F802C04CEA050564
:1006600091F800C0BCF1000F31D0146800202BE0DD
:100670004FF0010C0CFA00F3B1F800C00CEA0306CD
:100680009E4220D183004FF00F0C0CFA03F7BC43BD
:1006900005FA03FC4CEA040491F803C0BCF1280FEE
:1006A00006D14FF0010C0CFA00FCC2F814C00AE0AD
:1006B00091F803C0BCF1480F05D14FF0010C0CFAC2
:1006C00000FCC2F810C0401C0828D1D31460B1F857
:1006D00000C0BCF1FF0F34DD546800202EE000F1B3
:1006E000080C4FF0010808FA0CF3B1F800C00CEA4E
:1006F00003069E4221D183004FF00F0C0CFA03F742
:10070000BC4305FA03FC4CEA040491F803C0BCF1B5
:10071000280F05D100F1080C08FA0CF8C2F8148073
:1007200091F803C0BCF1480F07D100F1080C4FF05D
:10073000010808FA0CF8C2F81080401C0828CED333
:100740005460BDE8F0810000F0B50A4600230024A3
:100750000021002500F00046B6F1004F02D11D4EE9
:10076000F16901E01B4E7168C0F3034583B200F4E8
:100770004016B6F5401F08D121F07061154E76681D
:1007800026F07066134F7E6012E000F48016B6F516
:10079000801F06D1032606FA05F4A14341F07061DB
:1007A00006E0460D360103FA06F6B14341F07061EA
:1007B00022B1460D360103FA06F6314300F0004639
:1007C000B6F1004F02D1034EF16101E0014E7160BC
:1007D000F0BD0000000001404FF6FF7101800221D2
:1007E00081700421C17070470AB1016100E041616C
:1007F0007047000070B5002100230F22C47804B3B5
:10080000154C246804F4E064C4F5E064210AC1F1E5
:100810000403CA40447804FA03F184781440214365
:1008200009010E4C0678A155047804F01F05012437
:10083000AC4005786D11AD0005F1E025C5F800412B
:1008400009E0047804F01F050124AC40044D06784B
:10085000761145F8264070BD0CED00E000E400E0A4
:1008600080E100E002490143024A11607047000044
:100870000000FA050CED00E02DE9F04780468A46BD
:1008800015461E460027002451464046FFF797FDB7
:100890008146AC222046641C2A5400BF2FE000BFD2
:1008A00018F80700AC2807D018F80700AD2803D0C7
:1008B00018F80700AE2816D1B44203D34FF0FF302A
:1008C000BDE8F087AE222046641C2A54B44202D30D
:1008D0004FF0FF30F4E718F8070080F08002204660
:1008E000641C2A5409E0B44202D34FF0FF30E7E71A
:1008F00018F807202046641C2A5400BF7F1C574567
:10090000CDD300BFB9F1AC0F05D0B9F1AD0F02D016
:10091000B9F1AE0F13D1B44202D34FF0FF30CFE79D
:10092000AE222046641C2A54B44202D34FF0FF305A
:10093000C6E789F080022046641C2A5408E0B442CD
:1009400002D34FF0FF30BBE72046641C05F800904F
:1009500000BFB44202D34FF0FF30B1E7AD222046D2
:10096000641C2A542046ABE701460020034A506825
:1009700020F44040084350607047000000100240DF
:1009800029B1064AD2690243044BDA6104E0034A02
:10099000D2698243014BDA617047000000100240C7
:1009A00029B1064A92690243044B9A6104E0034A62
:1009B00092698243014B9A61704700000010024027
:1009C00029B1064AD2680243044BDA6004E0034AC4
:1009D000D2688243014BDA60704700000010024089
:1009E00030B500210022002400232D4D6D6805F054
:1009F0000C0121B1042905D0082923D105E0294D96
:100A0000056022E0284D05601FE0254D6D6805F466
:100A10007012234D6D6805F48034022505EB924277
:100A20001CB9224D554305600BE01D4D6D6805F462
:100A300000351DB11B4D5543056002E01A4D55436D
:100A4000056002E0174D056000BF00BF144D6D68E2
:100A500005F0F0010909164D6B5C0568DD40456045
:100A60000F4D6D6805F4E061090A114D6B5C456836
:100A7000DD4085600A4D6D6805F46051C90A0C4D72
:100A80006B5C4568DD40C560054D6D6805F440410F
:100A9000890B084D6B5CC568B5FBF3F5056130BD8E
:100AA0000010024000127A000024F40000093D000A
:100AB000AC000020BC000020014908607047000025
:100AC000D800424210B500F001F810BD0CB500206E
:100AD000019000903348006840F48030314908604C
:100AE00000BF3048006800F4003000900198401CBE
:100AF0000190009818B90198B0F5A06FF1D129487C
:100B0000006800F4003010B10120009001E00020E6
:100B100000900098012843D12348006840F010005D
:100B2000214908600846006820F003000860084674
:100B3000006840F0020008601A484068194948609F
:100B40000846406848600846406840F48060486055
:100B50000846406820F47C1048600846406840F42D
:100B6000E81048600846006840F08070086000BFE8
:100B70000C48006800F000700028F9D0094840686F
:100B800020F00300074948600846406840F0020032
:100B9000486000BF0348406800F00C000828F9D105
:100BA0000CBD00000010024000200240042808D1C3
:100BB0004FF0E021096941F004014FF0E02211619A
:100BC00007E04FF0E021096921F004014FF0E02235
:100BD00011617047094800680949096808440749D4
:100BE000086008480068002806DD064800680449D7
:100BF0000968401A03490860704700008C00002013
:100C0000940000208400002010B500210020002264
:100C1000214B5B6803F00C0121B1042906D008299F
:100C200028D107E01D4B1E4C236027E01D4B1C4CB8
:100C3000236023E0184B5B6803F47010164B5B686D
:100C400003F48032022303EB904022B9164B434356
:100C5000134C23600DE0104B5B6803F4003323B1A9
:100C60000E4B43430E4C236003E00E4B43430C4CAE
:100C7000236003E0094B0A4C236000BF00BF064B12
:100C80005B68C3F30313094CE15C054B1B68CB4065
:100C9000034C236010BD00000010024000127A00D7
:100CA000C00000200024F40000093D00C400002022
:100CB00010B51348006840F001001149086008466B
:100CC0004068104908400E494860084600680E49CF
:100CD00008400B4908600846006820F4802008603E
:100CE0000846406820F4FE0048604FF41F0088600A
:100CF000FFF7E8FE4FF000600449086010BD0000F7
:100D0000001002400000FFF8FFFFF6FE08ED00E0D3
:100D100010B50248006800F093FB10BDA40000204D
:100D200010B50248006800F08BFB10BDA800002041
:100D300010B50248006800F083FB10BD9800002049
:100D400010B50248006800F07BFB10BD9C0000203D
:100D500010B50248006800F073FB10BDA000002031
:100D600021B1828942F40052828104E082894DF6E9
:100D7000FF731A408281704702460020B1F5007F60
:100D800000D100BF13880B400BB1012000E0002010
:100D9000704770B50246002400230025002040F66D
:100DA0006A16B14200D100BFC1F3421501F01F0322
:100DB000012606FA03F3012D02D19689334006E09D
:100DC000022D02D1168A334001E0968A33400C127C
:100DD000012606FA04F41688344013B10CB1012040
:100DE00000E0002070BDF0B5034600240026002579
:100DF000002040F66A17B94200D100BF1846C1F37F
:100E0000421401F01F06012707FA06F5012C01D153
:100E10000C3004E0022C01D1103000E014301AB183
:100E200007682F43076002E00768AF430760F0BD23
:100E30002DE9F04786B005460E460024A24600BFC5
:100E4000A1460027B08900B100BF2F462C8A4CF67E
:100E5000FF700440F08804432C82AC894EF6F310F6
:100E60000440B08831890843718908430443AC8148
:100E7000AC8A4FF6FF400440B0890443AC8201A81D
:100E8000FFF7AEFD1F48874202D1DDF810A001E058
:100E9000DDF80CA0A88900F4004040B10AEBCA00BC
:100EA00000EB0A1031684900B0FBF1F807E00AEBEB
:100EB000CA0000EB0A1031688900B0FBF1F8642029
:100EC000B8FBF0F004012009642101FB1089A88916
:100ED00000F4004040B1322000EBC900B0FBF1F05B
:100EE00000F00700044308E0322000EB0910642101
:100EF000B0FBF1F000F00F0004432C8106B0BDE818
:100F0000F08700000038014001468888C0F30800DF
:100F10007047C1F30802828070474FF41651016098
:100F200000218180C18001810C21418100218181CA
:100F3000704710B54FF48020FFF75CFA10BD000039
:100F40002DE9F04385B004460D4616461F46DDE9FF
:100F50000C898023012204F1380104F1080000F01B
:100F600001FC8023012204F1B80104F1200000F00B
:100F7000F9FB5848854204D101218803FFF710FD91
:100F800022E05548854204D101214804FFF7F8FCCE
:100F90001AE05248854204D101218804FFF7F0FC91
:100FA00012E04F48854204D10121C804FFF7E8FC54
:100FB0000AE04C48854204D101210805FFF7E0FC16
:100FC00002E005B0BDE8F083002240F2255128463A
:100FD000FFF709FF002240F227712846FFF703FFC1
:100FE00000212846FFF7BCFE01A8FFF796FF0196F7
:100FF000ADF80870ADF80A80ADF80C900020ADF89F
:1010000010000C20ADF80E0001A92846FFF710FFD4
:10101000002060602560C4F838012E4885420BD15D
:101020003148046025208DF8000002208DF8010071
:1010300000208DF802003AE0274885420BD12B486A
:10104000046026208DF8000002208DF801000020A9
:101050008DF802002BE0214885420BD12448046022
:1010600027208DF8000002208DF8010000208DF867
:1010700002001CE01A4885420BD11E48046034204F
:101080008DF8000002208DF8010000208DF802008C
:101090000DE0144885420AD11748046035208DF8C8
:1010A000000002208DF8010000208DF802000120D0
:1010B0008DF803006846FFF79DFB012240F22551A1
:1010C0002846FFF790FE01212846FFF749FE00BFA2
:1010D00077E700000038014000440040004800402D
:1010E000004C004000500040980000209C00002070
:1010F000A0000020A4000020A80000202DE9F0415D
:1011000004460E46174614B90020BDE8F08104F1EC
:10111000200000F05BFB08B90020F6E7002240F257
:1011200025512068FFF75FFE002507E0711904F1E3
:10113000200000F001FB00B902E06D1CBD42F5DBB0
:1011400000BF012240F225512068FFF74CFE2846DF
:10115000DBE72DE9F04105460E4617460DB9BDE81F
:10116000F081D5F80080002240F227714046FFF759
:101170003AFE00240BE000BF80214046FFF7FCFD53
:101180000028F9D0315D4046FFF7C3FE641CBC4225
:10119000F1DB012240F227714046FFF724FE00BF39
:1011A000DDE700000EB501210846FFF7F9FB01213C
:1011B0000420FFF7F5FB02A8FFF70EFB4FF40070C9
:1011C000ADF8080018208DF80B0003208DF80A00F8
:1011D00002A96D48FFF72CFA02A8FFF7FDFA4FF4B9
:1011E0008060ADF8080048208DF80B0002A9664821
:1011F000FFF71EFA0020009003464FF4E1326349E6
:1012000001906348FFF79CFE01210420FFF7C8FB13
:1012100002A8FFF7E1FA0420ADF8080018208DF8C5
:101220000B0003208DF80A0002A95748FFF700FAC7
:1012300002A8FFF7D1FA0820ADF8080048208DF881
:101240000B0002A95048FFF7F3F900200090034675
:101250004FF416524F4901904F48FFF771FE01219C
:101260000820FFF79DFB02A8FFF7B6FA4FF4806055
:10127000ADF8080018208DF80B0003208DF80A0047
:1012800002A94648FFF7D4F902A8FFF7A5FA4FF4E0
:101290000060ADF8080048208DF80B0002A93F4817
:1012A000FFF7C6F90020009003464FF4E1323C49B5
:1012B00001903C48FFF744FE01211020FFF770FB2E
:1012C00002A8FFF789FA4FF48060ADF808001820F3
:1012D0008DF80B0003208DF80A0002A93248FFF7B1
:1012E000A7F902A8FFF778FA4FF40060ADF80800FC
:1012F00048208DF80B0002A92B48FFF799F9002030
:10130000009003464FF4E132284901902848FFF746
:1013100017FE01211020FFF743FB01212020FFF7DA
:101320003FFB02A8FFF758FA4FF48050ADF80800D1
:1013300018208DF80B0003208DF80A0002A91A4826
:10134000FFF776F902A8FFF747FA0420ADF8080086
:1013500048208DF80B0002A91648FFF769F9002014
:10136000009003464FF41652134901901348FFF7BB
:10137000E7FD01211248FFF7E7F900231A460F495C
:10138000012000F0B7F90EBD00080140003801400F
:10139000B416002000440040F0170020000C01406B
:1013A000004800402C19002000100140004C004073
:1013B000681A00200014014000500040A41B0020C7
:1013C0000002300002E008C8121F08C1002AFAD14A
:1013D00070477047002001E001C1121F002AFBD1B5
:1013E000704700F0010181F31388704730B5034660
:1013F00001E003F8011B1400A2F10102F9D130BD94
:1014000010B5044694F8030194F8041108440A281E
:1014100004DB204600F003F884F8050110BD10B588
:10142000014601F203114A780B78134464246243A5
:1014300092FBF3F000224A700A70A1F2031110BD72
:10144000F8B50446266840F225513046FFF7A1FC66
:10145000A0B120213046FFF78FFC78B13046FFF76E
:1014600053FDC5B2294604F1200000F09BF96068E5
:1014700020B129466268D4F83801904740F22771BC
:101480003046FFF786FC90B1694604F1080000F091
:1014900053F9002805DD9DF800103046FFF739FDAF
:1014A00005E0002240F227713046FFF79CFCF8BDB2
:1014B00038B5044602208DF800008DF801008DF843
:1014C00002400321684600F00FFB38BD38B50446E2
:1014D00002208DF8000001208DF801008DF80240F7
:1014E0000321684600F000FB38BD10B500F07AFA21
:1014F00010BD000010B500F04BFCFFF753FE0121BA
:10150000014800F093FA10BDB416002010B506484B
:10151000FFF72AF80548FFF727F80548FFF724F8F2
:1015200000F018FD10BD000000080140000C014053
:101530000010014010B500F01BFD10BD10B500F00B
:10154000A1F84FF4A060FFF78DF91020FEF7A8FF77
:101550004FF47A7000F046FD10BD00002DE9F8430D
:1015600004462046FEF770FE05460022074BFEF7B4
:10157000F9FD0746FEF775FE009000E000BF0098F9
:10158000411E00910028F9DCBDE8F8830000F43F1B
:101590001CB50020019000903848006840F480306D
:1015A0003649086000BF3548006800F400300090FC
:1015B0000198401C0190009818B90198B0F5A06FEF
:1015C000F1D12E48006800F4003010B101200090E5
:1015D00001E000200090009801284CD128480068C4
:1015E00040F01000264908600846006820F003001B
:1015F00008600846006840F0020008601F48406824
:101600001E4948600846406848600846406840F403
:10161000806048600020FFF74FFA4FF40040FFF76A
:10162000A3F91648406820F47C1014494860084625
:10163000406840F4F81048600846006840F0807048
:10164000086000BF0D48006800F000700028F9D065
:101650000A48406820F0030008494860084640688E
:1016600040F00200486000BF0448406800F00C00F1
:101670000828F9D101E000F037F81CBD0010024045
:101680000020024010B51448006840F001001249E3
:10169000086008464068114908400F4948600846FC
:1016A00000680F4908400C4908600846006820F4AB
:1016B000802008600846406820F4FE0048604FF42F
:1016C0001F008860FFF764FFFFF79EFA4FF000608D
:1016D0000449086010BD0000001002400000FFF83F
:1016E000FFFFF6FE08ED00E0704710B5002000F0A7
:1016F000EBFB10BD30B5022800D100BF012807D197
:1017000031B1084C24680443064D2C60064C21601E
:101710004FF0FF34054D2C60054C2260054C2360D2
:1017200030BD00006C000020680000207000002028
:10173000740000207800002010B50246506913693B
:10174000984201D1002010BD53699068C05C0870B8
:101750005069401C5368B0FBF3F403FB1400506164
:101760000120F0E710B50024046002FB03F444609C
:101770008160C26000240461446110BD30B502463E
:101780001069401C5468B0FBF4F504FB1503506964
:10179000984201D1002030BD146990680155136151
:1017A0000120F8E730B504460D4607E06069401CAB
:1017B0006168B0FBF1F201FB12006061294620462E
:1017C000FFF7DCFF0028F1D0012030BD0146086999
:1017D0004B69C21A002A01DB104670474868104462
:1017E000FBE710B5FEF752FE10BD000010B5FEF786
:1017F0009BFE3420FEF704FE0348044908600020E5
:101800000349087010BD00000040000824000020BB
:101810000800002010B50E480068B8B14FF400620F
:101820000C490D48006800F0A5F90446601C08B991
:10183000162010BDA01C08B91520FAE700F06AF9BF
:101840000548006800F50060034908600020F0E7E3
:1018500004000020D400002024000020014800687B
:1018600070470000003800082DE9F04106460F4699
:1018700027480078401CC82190FBF1F201FB1200C0
:1018800000F0FF083078404506D01720FFF710FE23
:101890004FF0FF30BDE8F0811D4880F80080002542
:1018A000012416E0325D1B490868411C194B196080
:1018B00019490A5418460068B0F5006F08D34FF470
:1018C00000621648006800F055F9054600F022F95C
:1018D000641CBC42E6DB681C18B91620FFF7E8FD63
:1018E00014E0A81C18B91520FFF7E2FD0EE0002D4A
:1018F00009DD0A48006800F5006008490860032017
:10190000FFF7E4FD02E00320FFF7E0FD0020C1E760
:101910000800002004000020D40000202400002043
:1019200070B505460E4615480078022818D1FFF715
:1019300071FF04465CB90420FFF7C8FD2878012830
:1019400008D10F4800F048F800F094F802E0E0B247
:10195000FFF7AEFDFFF745FF0020084908700BE0D8
:101960000420FFF7B3FD2878012805D14CF2503050
:1019700000F032F800F07EF870BD0000000000209A
:10198000C02709002DE9F04105460C462E786F1C52
:10199000012E04D0032E0DD0042E17D10FE002200B
:1019A0000C490870FFF722FF00F0B4F80120FFF7A0
:1019B0008DFD0BE0611E3846FFF756FF06E0022C56
:1019C00003D1611E3846FFF7ABFF00BF00BFBDE883
:1019D000F08100000000002010B504462046FFF70B
:1019E000BDFD10BD1CB508210E4800F05FF8009049
:1019F0000020019011E00B480199445C21460A48FF
:101A000000F06CF9012804D10748D0F80C11FFF759
:101A1000B9FF00BF0198401C0190DDE90010884229
:101A2000E9DB1CBD1C000020D408002070B5044672
:101A30000D4600F08BF820B900F07CF808B100F0FA
:101A400019F8074800F03CF9064800F039F9064853
:101A500004600648056001200549086070BD00006B
:101A6000E8090020D40800200C000020100000200D
:101A70001800002070B5FFF749FD0A4800680128EA
:101A800003D1FFF732FE00F01FF800F053F840B129
:101A9000054845682C460146086880F3088800BF61
:101AA000A04770BD140000200040000870B5044637
:101AB0000D462A46214603480068FFF71FFB0646ED
:101AC000304670BD0C000020012080F3108800BF5C
:101AD000FFF787FC02480349086000BFFEE70000EB
:101AE0000400FA050CED00E070B504460D462A46E8
:101AF0002146064800F0CDF804480146D0F80C21F4
:101B000003480068FFF725FB70BD0000E8090020CE
:101B10000C00002000B54FF4006200210348FFF7DD
:101B200065FC00200249086000BD0000D4000020D0
:101B300004000020044801680068401C08B9002027
:101B400070470120FCE700000040000800B5FFF7E7
:101B500085FE0146AB2901D1012000BD0020FCE734
:101B6000FFF7ECFCFFF7C6FC03E0FFF7E3FCFFF731
:101B7000BCFCFAE72DE9F04781460D461746B7F55C
:101B8000006F02DA0020BDE8F087002600BF761C57
:101B9000642E02DD4FF0FF30F5E74846FEF736FCD5
:101BA0001E490870084600780428F0D1C84603246E
:101BB00022E0002600BF761C642E02DD6FF00100DB
:101BC000E1E7285D0106601E285C41EA0041A01E95
:101BD000285C41EA0020E11E695C40EA010A5146A6
:101BE0004046FEF76BFC0D49087008460078042853
:101BF000E1D108F10408241DBC4202DAB4F5006FFB
:101C0000D7DB3A462946484600F02AFA012802D195
:101C100003490860B7E76FF00100B4E7090000204E
:101C2000140000202DE9F04104460F46002500264F
:101C3000A84600BF1BE0605DAC2802D0605DAD2807
:101C400000D113E0605DAE280CD16D1CBD4203D302
:101C50004FF0FF30BDE8F081605D80F08000A0555E
:101C6000761C03E0605DA055761C00BF6D1CBD4274
:101C7000E1D3002E0BDD711E2046FEF7A0FB80464F
:101C8000701E205C404502D04FF0FF30E2E7701E2E
:101C9000E0E7F0B505460F461646802E01DD002030
:101CA000F0BD80232A4631463846FEF7E5FD04465E
:101CB000002C01DA0020F3E7C5F80C410120EFE722
:101CC000002100F58270417000F8011C0170416034
:101CD000816001210173A0F58270704730B5044620
:101CE0000D4694F81001012801D0002030BDD4F831
:101CF000080180280AD394F80301401C84F80301EA
:101D00000020C4F808012046FFF77AFBD4F8080148
:101D100040B9AC2D39D1D4F80811481CC4F80801D9
:101D2000655432E0AD2D2AD1D4F80811481CC4F80E
:101D3000080165542046D4F80811FFF773FFC4F872
:101D40000C01D4F80C0100280CDB94F80401401CB1
:101D500084F804012046FFF753FB0020C4F8080173
:101D60000120C3E794F80301401C84F8030100201C
:101D7000C4F808012046FFF743FB0020B6E7D4F87B
:101D80000811481CC4F8080165540020AEE70000A3
:101D900008B501210420FEF703FE01210820FEF70B
:101DA000FFFD01211020FEF7FBFD6846FEF714FD44
:101DB0004FF4B870ADF8000010208DF80300032038
:101DC0008DF8020069461048FEF732FCF020ADF8AD
:101DD000000010208DF8030003208DF802006946F2
:101DE0000A48FEF725FC0620ADF8000010208DF80B
:101DF000030003208DF8020069460548FEF718FC31
:101E0000002000F007F808BD001001400008014064
:101E1000000C014010B5044600224FF480712648A2
:101E2000FEF7E2FC04F02000420910212248FEF7F0
:101E3000DBFC002240212048FEF7D6FC04F0010222
:101E400020211D48FEF7D0FC002280211B48FEF710
:101E5000CBFC04F00800C20840211848FEF7C4FC7F
:101E6000002220211548FEF7BFFC04F002004208C2
:101E700010211248FEF7B8FC04F004000121B1EB78
:101E8000900F09D1002280210C48FEF7ADFC002202
:101E900040210A48FEF7A8FC002204210848FEF76A
:101EA000A3FC04F01000020902210548FEF79CFC87
:101EB0000448047010BD00000010014000080140FB
:101EC000000C0140400000202DE9F04104460A27A3
:101ED00004201E490870FEF727FB3420FEF790FA15
:101EE000002500BF0AE01A48FEF790FA174908706B
:101EF00008460078042801D1012503E0381EA7F127
:101F00000107F0DC00BF012D13D100250A270BE0EB
:101F100021460F48FEF7D2FA0C49087008460078AF
:101F2000042801D1012503E0381EA7F10107EFDCE9
:101F300000BFFEF7ABFA012D05D1FFF78FFCC6B24B
:101F4000A64200D000252846BDE8F0817C00002094
:101F5000003800084FF0E020006920F002004FF048
:101F6000E02108610846006920F00100086170471F
:101F700019480068B0F57A7F14D3174800684FF409
:101F80007A71B0FBF1F015490968084413490860FB
:101F9000114800684FF47A71B0FBF1F201FB1200B6
:101FA0000D4908600D4800686FF00041884211D368
:101FB0000B480078401C0A490870084600786FF00A
:101FC000404190FBF1F201FB12000549087000202E
:101FD00002490860704700008C0000208800002043
:101FE0009000002070B504460420FEF7DFFD17487E
:101FF0000068B0FBF4F0401E4FF0E0214861144847
:10200000B0FBF4F0134908604FF0FF304FF4A061CB
:10201000002804DB0A07130E0F4A135406E00A07D0
:10202000150E0E4A00F00F031B1FD55400BF4FF0D2
:10203000E020006940F002004FF0E021086108460E
:10204000006940F00100086170BD0000C000002080
:1020500040420F009400002000E400E018ED00E092
:102060002DE9F04104460B462746012003210025B7
:102070001DE013F801C04FEA0C68A1F1010C13F840
:102080000CC048EA0C48A1F1020C13F80CC048EA55
:102090000C2CA1F1030813F808804CEA080657F845
:1020A00025C0B44501D0002006E0091D6D1C9142F9
:1020B00002DAB1F5006FDCDB00BFBDE8F0810000A3
:1020C000E020000800000020D4000000C413000835
:1020D000B4210008D4000020CC200000D413000854
:1020E00000000000000000000004000000000000EC
:1020F00000000000000000000000000000000000E0
:10210000000000000000000001000000B4160020E4
:10211000F01700202C190020681A0020A41B0020B2
:1021200000000000000000000000000000000000AF
:10213000000000000000000000000000000000009F
:10214000000000000000000000000000000000008F
:10215000000000000000000000000000040000007B
:10216000000000000000000000000000000000006F
:10217000000000000000000000000000000000005F
:10218000000000000000000000000000000000004F
:1021900001020304010203040607080902040608F9
:1021A00000A24A0400000000000000000102030435
:0421B000060708090D
:0400000508000131BD
:00000001FF
